{
  "contractName": "Donation",
  "abi": [
    {
      "anonymous": false,
      "inputs": [
        {
          "indexed": false,
          "internalType": "uint256",
          "name": "id",
          "type": "uint256"
        },
        {
          "indexed": false,
          "internalType": "address",
          "name": "contributor",
          "type": "address"
        },
        {
          "indexed": false,
          "internalType": "uint256",
          "name": "donatedTip",
          "type": "uint256"
        },
        {
          "indexed": false,
          "internalType": "uint256",
          "name": "eventId",
          "type": "uint256"
        }
      ],
      "name": "EventContributors",
      "type": "event"
    },
    {
      "anonymous": false,
      "inputs": [
        {
          "indexed": false,
          "internalType": "uint256",
          "name": "id",
          "type": "uint256"
        },
        {
          "indexed": false,
          "internalType": "string",
          "name": "hash",
          "type": "string"
        },
        {
          "indexed": false,
          "internalType": "string",
          "name": "title",
          "type": "string"
        },
        {
          "indexed": false,
          "internalType": "string",
          "name": "description",
          "type": "string"
        },
        {
          "indexed": false,
          "internalType": "uint256",
          "name": "goalAmount",
          "type": "uint256"
        },
        {
          "indexed": false,
          "internalType": "uint256",
          "name": "tipAmount",
          "type": "uint256"
        },
        {
          "indexed": false,
          "internalType": "address",
          "name": "author",
          "type": "address"
        }
      ],
      "name": "EventCreated",
      "type": "event"
    },
    {
      "anonymous": false,
      "inputs": [
        {
          "indexed": false,
          "internalType": "uint256",
          "name": "id",
          "type": "uint256"
        },
        {
          "indexed": false,
          "internalType": "string",
          "name": "hash",
          "type": "string"
        },
        {
          "indexed": false,
          "internalType": "string",
          "name": "title",
          "type": "string"
        },
        {
          "indexed": false,
          "internalType": "string",
          "name": "description",
          "type": "string"
        },
        {
          "indexed": false,
          "internalType": "uint256",
          "name": "tipAmount",
          "type": "uint256"
        },
        {
          "indexed": false,
          "internalType": "address",
          "name": "author",
          "type": "address"
        }
      ],
      "name": "EventTipped",
      "type": "event"
    },
    {
      "inputs": [],
      "name": "contributorCount",
      "outputs": [
        {
          "internalType": "uint256",
          "name": "",
          "type": "uint256"
        }
      ],
      "stateMutability": "view",
      "type": "function",
      "constant": true
    },
    {
      "inputs": [
        {
          "internalType": "uint256",
          "name": "",
          "type": "uint256"
        }
      ],
      "name": "contributors",
      "outputs": [
        {
          "internalType": "uint256",
          "name": "id",
          "type": "uint256"
        },
        {
          "internalType": "address",
          "name": "contributor",
          "type": "address"
        },
        {
          "internalType": "uint256",
          "name": "donatedTip",
          "type": "uint256"
        },
        {
          "internalType": "uint256",
          "name": "eventId",
          "type": "uint256"
        }
      ],
      "stateMutability": "view",
      "type": "function",
      "constant": true
    },
    {
      "inputs": [],
      "name": "eventCount",
      "outputs": [
        {
          "internalType": "uint256",
          "name": "",
          "type": "uint256"
        }
      ],
      "stateMutability": "view",
      "type": "function",
      "constant": true
    },
    {
      "inputs": [
        {
          "internalType": "uint256",
          "name": "",
          "type": "uint256"
        }
      ],
      "name": "events",
      "outputs": [
        {
          "internalType": "uint256",
          "name": "id",
          "type": "uint256"
        },
        {
          "internalType": "string",
          "name": "hash",
          "type": "string"
        },
        {
          "internalType": "string",
          "name": "title",
          "type": "string"
        },
        {
          "internalType": "string",
          "name": "description",
          "type": "string"
        },
        {
          "internalType": "uint256",
          "name": "goalAmount",
          "type": "uint256"
        },
        {
          "internalType": "uint256",
          "name": "tipAmount",
          "type": "uint256"
        },
        {
          "internalType": "address",
          "name": "author",
          "type": "address"
        }
      ],
      "stateMutability": "view",
      "type": "function",
      "constant": true
    },
    {
      "inputs": [],
      "name": "name",
      "outputs": [
        {
          "internalType": "string",
          "name": "",
          "type": "string"
        }
      ],
      "stateMutability": "view",
      "type": "function",
      "constant": true
    },
    {
      "inputs": [
        {
          "internalType": "string",
          "name": "_imgHash",
          "type": "string"
        },
        {
          "internalType": "string",
          "name": "_title",
          "type": "string"
        },
        {
          "internalType": "string",
          "name": "_description",
          "type": "string"
        },
        {
          "internalType": "uint256",
          "name": "_goalAmount",
          "type": "uint256"
        }
      ],
      "name": "uploadEvent",
      "outputs": [],
      "stateMutability": "nonpayable",
      "type": "function"
    },
    {
      "inputs": [
        {
          "internalType": "uint256",
          "name": "_id",
          "type": "uint256"
        }
      ],
      "name": "tipEventOwner",
      "outputs": [],
      "stateMutability": "payable",
      "type": "function",
      "payable": true
    }
  ],
  "bytecode": "0x60c060405260086080819052672237b730ba34b7b760c11b60a09081526200002b91600091906200004a565b50600060015560006003553480156200004357600080fd5b506200012d565b8280546200005890620000f0565b90600052602060002090601f0160209004810192826200007c5760008555620000c7565b82601f106200009757805160ff1916838001178555620000c7565b82800160010185558215620000c7579182015b82811115620000c7578251825591602001919060010190620000aa565b50620000d5929150620000d9565b5090565b5b80821115620000d55760008155600101620000da565b600181811c908216806200010557607f821691505b602082108114156200012757634e487b7160e01b600052602260045260246000fd5b50919050565b610da4806200013d6000396000f3fe6080604052600436106100705760003560e01c806371be2e4a1161004e57806371be2e4a146101475780638f5c74361461016b5780639cbdd7a414610180578063ecfd8928146101a057600080fd5b806306fdde03146100755780630b791430146100a05780633cb5d100146100d3575b600080fd5b34801561008157600080fd5b5061008a6101b6565b6040516100979190610ab9565b60405180910390f35b3480156100ac57600080fd5b506100c06100bb366004610ad3565b610244565b6040516100979796959493929190610aec565b3480156100df57600080fd5b5061011f6100ee366004610ad3565b600460205260009081526040902080546001820154600283015460039093015491926001600160a01b039091169184565b604080519485526001600160a01b039093166020850152918301526060820152608001610097565b34801561015357600080fd5b5061015d60015481565b604051908152602001610097565b61017e610179366004610ad3565b610422565b005b34801561018c57600080fd5b5061017e61019b366004610bf7565b610859565b3480156101ac57600080fd5b5061015d60035481565b600080546101c390610c87565b80601f01602080910402602001604051908101604052809291908181526020018280546101ef90610c87565b801561023c5780601f106102115761010080835404028352916020019161023c565b820191906000526020600020905b81548152906001019060200180831161021f57829003601f168201915b505050505081565b6002602052600090815260409020805460018201805491929161026690610c87565b80601f016020809104026020016040519081016040528092919081815260200182805461029290610c87565b80156102df5780601f106102b4576101008083540402835291602001916102df565b820191906000526020600020905b8154815290600101906020018083116102c257829003601f168201915b5050505050908060020180546102f490610c87565b80601f016020809104026020016040519081016040528092919081815260200182805461032090610c87565b801561036d5780601f106103425761010080835404028352916020019161036d565b820191906000526020600020905b81548152906001019060200180831161035057829003601f168201915b50505050509080600301805461038290610c87565b80601f01602080910402602001604051908101604052809291908181526020018280546103ae90610c87565b80156103fb5780601f106103d0576101008083540402835291602001916103fb565b820191906000526020600020905b8154815290600101906020018083116103de57829003601f168201915b5050505060048301546005840154600690940154929390929091506001600160a01b031687565b60008111801561043457506001548111155b61043d57600080fd5b6000600260008381526020019081526020016000206040518060e00160405290816000820154815260200160018201805461047790610c87565b80601f01602080910402602001604051908101604052809291908181526020018280546104a390610c87565b80156104f05780601f106104c5576101008083540402835291602001916104f0565b820191906000526020600020905b8154815290600101906020018083116104d357829003601f168201915b5050505050815260200160028201805461050990610c87565b80601f016020809104026020016040519081016040528092919081815260200182805461053590610c87565b80156105825780601f1061055757610100808354040283529160200191610582565b820191906000526020600020905b81548152906001019060200180831161056557829003601f168201915b5050505050815260200160038201805461059b90610c87565b80601f01602080910402602001604051908101604052809291908181526020018280546105c790610c87565b80156106145780601f106105e957610100808354040283529160200191610614565b820191906000526020600020905b8154815290600101906020018083116105f757829003601f168201915b50505091835250506004820154602082015260058201546040808301919091526006909201546001600160a01b0390811660609092019190915260c083015191519293509091908216903480156108fc02916000818181858888f19350505050158015610685573d6000803e3d6000fd5b50348260a0018181516106989190610cd8565b90525060008381526002602090815260409091208351815581840151805185936106c99260018501929101906109d3565b50604082015180516106e59160028401916020909101906109d3565b50606082015180516107019160038401916020909101906109d3565b506080820151600482015560a0820151600582015560c090910151600690910180546001600160a01b0319166001600160a01b039092169190911790556003805490600061074e83610cf0565b9091555050604080516080808201835260038054808452336020808601828152348789018181526060808a018e8152600097885260048652968b902099518a55925160018a0180546001600160a01b0319166001600160a01b039092169190911790555160028901559351968501969096559254865190815292830152938101939093529082018590527fc19429079000654f0170d4c6cfabc754864466c06b12d32f055791377c7be314910160405180910390a17f1853937b068b423fb7a0d2b7f59d78eec309e79dac441849b8427c73ed9a29fd838360200151846040015185606001518660a001518660405161084c96959493929190610d0b565b60405180910390a1505050565b600084511161086757600080fd5b600083511161087557600080fd5b600082511161088357600080fd5b6000811161089057600080fd5b3361089a57600080fd5b600180549060006108aa83610cf0565b90915550506040805160e0810182526001805480835260208084018981528486018990526060850188905260808501879052600060a086018190523360c0870152928352600282529490912083518155935180519394936109129385019291909101906109d3565b506040820151805161092e9160028401916020909101906109d3565b506060820151805161094a9160038401916020909101906109d3565b506080820151600482015560a0820151600582015560c090910151600690910180546001600160a01b0319166001600160a01b039092169190911790556001546040517fa3ba334a8c24d93c7fb99b8ad309aef7002fbbb5afbe659ee874c18c9b052e14916109c59187908790879087906000903390610aec565b60405180910390a150505050565b8280546109df90610c87565b90600052602060002090601f016020900481019282610a015760008555610a47565b82601f10610a1a57805160ff1916838001178555610a47565b82800160010185558215610a47579182015b82811115610a47578251825591602001919060010190610a2c565b50610a53929150610a57565b5090565b5b80821115610a535760008155600101610a58565b6000815180845260005b81811015610a9257602081850181015186830182015201610a76565b81811115610aa4576000602083870101525b50601f01601f19169290920160200192915050565b602081526000610acc6020830184610a6c565b9392505050565b600060208284031215610ae557600080fd5b5035919050565b87815260e060208201526000610b0560e0830189610a6c565b8281036040840152610b178189610a6c565b90508281036060840152610b2b8188610a6c565b6080840196909652505060a08101929092526001600160a01b031660c090910152949350505050565b634e487b7160e01b600052604160045260246000fd5b600082601f830112610b7b57600080fd5b813567ffffffffffffffff80821115610b9657610b96610b54565b604051601f8301601f19908116603f01168101908282118183101715610bbe57610bbe610b54565b81604052838152866020858801011115610bd757600080fd5b836020870160208301376000602085830101528094505050505092915050565b60008060008060808587031215610c0d57600080fd5b843567ffffffffffffffff80821115610c2557600080fd5b610c3188838901610b6a565b95506020870135915080821115610c4757600080fd5b610c5388838901610b6a565b94506040870135915080821115610c6957600080fd5b50610c7687828801610b6a565b949793965093946060013593505050565b600181811c90821680610c9b57607f821691505b60208210811415610cbc57634e487b7160e01b600052602260045260246000fd5b50919050565b634e487b7160e01b600052601160045260246000fd5b60008219821115610ceb57610ceb610cc2565b500190565b6000600019821415610d0457610d04610cc2565b5060010190565b86815260c060208201526000610d2460c0830188610a6c565b8281036040840152610d368188610a6c565b90508281036060840152610d4a8187610a6c565b608084019590955250506001600160a01b039190911660a09091015294935050505056fea2646970667358221220bf5f0fd8a3a3b41599503279ba1cdb0428164c488ada58f1dff183000b22f77e64736f6c634300080c0033",
  "immutableReferences": {},
  "source": "//SPDX-License-Identifier: UNLICENSED\r\npragma solidity >0.5.0;\r\n\r\ncontract Donation {\r\n    string public name = 'Donation';\r\n\r\n    //Create id=>struct mapping\r\n    uint256 public eventCount = 0;\r\n    mapping(uint256 => Event) public events;\r\n\r\n    uint256 public contributorCount = 0;\r\n    mapping(uint256 => Contributor) public contributors;\r\n\r\n    // 1. Model the Event\r\n    struct Contributor {\r\n        uint256 id;\r\n        address contributor;\r\n        uint256 donatedTip;\r\n        uint256 eventId;\r\n    }\r\n    //Create Struct\r\n    struct Event {\r\n        uint256 id;\r\n        string hash;\r\n        string title;\r\n        string description;\r\n        uint256 goalAmount;\r\n        uint256 tipAmount;\r\n        address author;\r\n    }\r\n\r\n    //Create TriggerEvents\r\n    event EventCreated(\r\n        uint256 id,\r\n        string hash,\r\n        string title,\r\n        string description,\r\n        uint256 goalAmount,\r\n        uint256 tipAmount,\r\n        address author\r\n    );\r\n    event EventTipped(\r\n        uint256 id,\r\n        string hash,\r\n        string title,\r\n        string description,\r\n        uint256 tipAmount,\r\n        address author\r\n    );\r\n    event EventContributors(\r\n        uint256 id,\r\n        address contributor,\r\n        uint256 donatedTip,\r\n        uint256 eventId\r\n    );\r\n\r\n    //Create Event\r\n    function uploadEvent(\r\n        string memory _imgHash,\r\n        string memory _title,\r\n        string memory _description,\r\n        uint256 _goalAmount\r\n    ) public {\r\n        // Make sure the image hash exists\r\n        require(bytes(_imgHash).length > 0);\r\n\r\n        // Make sure details exists\r\n        require(bytes(_title).length > 0);\r\n        require(bytes(_description).length > 0);\r\n\r\n        // Make goal amount exists\r\n        require(_goalAmount > 0);\r\n\r\n        // Make sure uploader address exists\r\n        require(msg.sender != address(0));\r\n\r\n        // Increment event id\r\n        eventCount++;\r\n\r\n        // Add video to the contract\r\n        events[eventCount] = Event(\r\n            eventCount,\r\n            _imgHash,\r\n            _title,\r\n            _description,\r\n            _goalAmount,\r\n            0,\r\n            msg.sender\r\n        );\r\n\r\n        // Trigger an event\r\n        emit EventCreated(\r\n            eventCount,\r\n            _imgHash,\r\n            _title,\r\n            _description,\r\n            _goalAmount,\r\n            0,\r\n            msg.sender\r\n        );\r\n    }\r\n\r\n    //Tip Images\r\n    function tipEventOwner(uint256 _id) public payable {\r\n        // Make sure the id is valid\r\n        require(_id > 0 && _id <= eventCount);\r\n\r\n        Event memory _event = events[_id]; //Fetch the event\r\n        address _author = _event.author; //Fetch the author\r\n\r\n        payable(_author).transfer(msg.value); //Tipping the author\r\n\r\n        _event.tipAmount += msg.value; //Update tip amount\r\n        events[_id] = _event; //Update the blockchain\r\n\r\n        // Increment contributor id\r\n        contributorCount++;\r\n\r\n        // Add contributor to the contract\r\n        contributors[contributorCount] = Contributor(\r\n            contributorCount,\r\n            msg.sender,\r\n            msg.value,\r\n            _id\r\n        );\r\n\r\n        // Trigger an event\r\n        emit EventContributors(contributorCount, msg.sender, msg.value, _id);\r\n\r\n        // Trigger an event\r\n        emit EventTipped(\r\n            _id,\r\n            _event.hash,\r\n            _event.title,\r\n            _event.description,\r\n            _event.tipAmount,\r\n            _author\r\n        );\r\n    }\r\n}\r\n",
  "sourcePath": "G:\\blockchain projects\\next-hearts-dapp\\contracts\\Donation.sol",
  "compiler": {
    "name": "solc",
    "version": "0.8.12+commit.f00d7308.Emscripten.clang"
  },
  "schemaVersion": "3.4.6",
  "updatedAt": "2022-05-03T03:59:19.777Z",
  "networkType": "ethereum",
  "devdoc": {
    "kind": "dev",
    "methods": {},
    "version": 1
  },
  "userdoc": {
    "kind": "user",
    "methods": {},
    "version": 1
  }
}